{
  "_format": "hh-sol-artifact-1",
  "contractName": "FlashLoan",
  "sourceName": "contracts/flash_loan.sol",
  "abi": [
    {
      "inputs": [
        {
          "internalType": "address",
          "name": "_addressProvider",
          "type": "address"
        }
      ],
      "stateMutability": "nonpayable",
      "type": "constructor"
    },
    {
      "inputs": [],
      "name": "ADDRESSES_PROVIDER",
      "outputs": [
        {
          "internalType": "contract IPoolAddressesProvider",
          "name": "",
          "type": "address"
        }
      ],
      "stateMutability": "view",
      "type": "function"
    },
    {
      "inputs": [],
      "name": "POOL",
      "outputs": [
        {
          "internalType": "contract IPool",
          "name": "",
          "type": "address"
        }
      ],
      "stateMutability": "view",
      "type": "function"
    },
    {
      "inputs": [
        {
          "internalType": "address",
          "name": "asset",
          "type": "address"
        },
        {
          "internalType": "uint256",
          "name": "amount",
          "type": "uint256"
        },
        {
          "internalType": "uint256",
          "name": "premium",
          "type": "uint256"
        },
        {
          "internalType": "address",
          "name": "initiator",
          "type": "address"
        },
        {
          "internalType": "bytes",
          "name": "params",
          "type": "bytes"
        }
      ],
      "name": "executeOperation",
      "outputs": [
        {
          "internalType": "bool",
          "name": "",
          "type": "bool"
        }
      ],
      "stateMutability": "nonpayable",
      "type": "function"
    },
    {
      "inputs": [
        {
          "internalType": "address",
          "name": "_token",
          "type": "address"
        },
        {
          "internalType": "uint256",
          "name": "_amount",
          "type": "uint256"
        }
      ],
      "name": "flashLoan",
      "outputs": [],
      "stateMutability": "nonpayable",
      "type": "function"
    },
    {
      "inputs": [],
      "name": "owner",
      "outputs": [
        {
          "internalType": "address",
          "name": "",
          "type": "address"
        }
      ],
      "stateMutability": "view",
      "type": "function"
    }
  ],
  "bytecode": "0x60c060405234801561001057600080fd5b50604051610b99380380610b99833981810160405281019061003291906101b3565b808073ffffffffffffffffffffffffffffffffffffffff1660808173ffffffffffffffffffffffffffffffffffffffff16815250508073ffffffffffffffffffffffffffffffffffffffff1663026b1d5f6040518163ffffffff1660e01b8152600401602060405180830381865afa1580156100b2573d6000803e3d6000fd5b505050506040513d601f19601f820116820180604052508101906100d691906101b3565b73ffffffffffffffffffffffffffffffffffffffff1660a08173ffffffffffffffffffffffffffffffffffffffff168152505050336000806101000a81548173ffffffffffffffffffffffffffffffffffffffff021916908373ffffffffffffffffffffffffffffffffffffffff160217905550506101e0565b600080fd5b600073ffffffffffffffffffffffffffffffffffffffff82169050919050565b600061018082610155565b9050919050565b61019081610175565b811461019b57600080fd5b50565b6000815190506101ad81610187565b92915050565b6000602082840312156101c9576101c8610150565b5b60006101d78482850161019e565b91505092915050565b60805160a05161098661021360003960008181610155015281816101e701526102d10152600061010401526109866000f3fe608060405234801561001057600080fd5b50600436106100575760003560e01c80630542975c1461005c5780631b11d0ff1461007a5780637535d246146100aa5780638da5cb5b146100c85780639d9e465c146100e6575b600080fd5b610064610102565b60405161007191906103e7565b60405180910390f35b610094600480360381019061008f91906104e5565b610126565b6040516100a1919061059a565b60405180910390f35b6100b26101e5565b6040516100bf91906105d6565b60405180910390f35b6100d0610209565b6040516100dd9190610600565b60405180910390f35b61010060048036038101906100fb919061061b565b61022d565b005b7f000000000000000000000000000000000000000000000000000000000000000081565b6000808587610135919061068a565b90508773ffffffffffffffffffffffffffffffffffffffff1663095ea7b37f0000000000000000000000000000000000000000000000000000000000000000836040518363ffffffff1660e01b81526004016101929291906106ef565b6020604051808303816000875af11580156101b1573d6000803e3d6000fd5b505050506040513d601f19601f820116820180604052508101906101d59190610744565b5060019150509695505050505050565b7f000000000000000000000000000000000000000000000000000000000000000081565b60008054906101000a900473ffffffffffffffffffffffffffffffffffffffff1681565b60008054906101000a900473ffffffffffffffffffffffffffffffffffffffff1673ffffffffffffffffffffffffffffffffffffffff163373ffffffffffffffffffffffffffffffffffffffff16146102bb576040517f08c379a00000000000000000000000000000000000000000000000000000000081526004016102b2906107f4565b60405180910390fd5b60006040518060200160405280600081525090507f000000000000000000000000000000000000000000000000000000000000000073ffffffffffffffffffffffffffffffffffffffff166342b0b77c3085858560006040518663ffffffff1660e01b81526004016103319594939291906108f6565b600060405180830381600087803b15801561034b57600080fd5b505af115801561035f573d6000803e3d6000fd5b50505050505050565b600073ffffffffffffffffffffffffffffffffffffffff82169050919050565b6000819050919050565b60006103ad6103a86103a384610368565b610388565b610368565b9050919050565b60006103bf82610392565b9050919050565b60006103d1826103b4565b9050919050565b6103e1816103c6565b82525050565b60006020820190506103fc60008301846103d8565b92915050565b600080fd5b600080fd5b600061041782610368565b9050919050565b6104278161040c565b811461043257600080fd5b50565b6000813590506104448161041e565b92915050565b6000819050919050565b61045d8161044a565b811461046857600080fd5b50565b60008135905061047a81610454565b92915050565b600080fd5b600080fd5b600080fd5b60008083601f8401126104a5576104a4610480565b5b8235905067ffffffffffffffff8111156104c2576104c1610485565b5b6020830191508360018202830111156104de576104dd61048a565b5b9250929050565b60008060008060008060a0878903121561050257610501610402565b5b600061051089828a01610435565b965050602061052189828a0161046b565b955050604061053289828a0161046b565b945050606061054389828a01610435565b935050608087013567ffffffffffffffff81111561056457610563610407565b5b61057089828a0161048f565b92509250509295509295509295565b60008115159050919050565b6105948161057f565b82525050565b60006020820190506105af600083018461058b565b92915050565b60006105c0826103b4565b9050919050565b6105d0816105b5565b82525050565b60006020820190506105eb60008301846105c7565b92915050565b6105fa8161040c565b82525050565b600060208201905061061560008301846105f1565b92915050565b6000806040838503121561063257610631610402565b5b600061064085828601610435565b92505060206106518582860161046b565b9150509250929050565b7f4e487b7100000000000000000000000000000000000000000000000000000000600052601160045260246000fd5b60006106958261044a565b91506106a08361044a565b9250827fffffffffffffffffffffffffffffffffffffffffffffffffffffffffffffffff038211156106d5576106d461065b565b5b828201905092915050565b6106e98161044a565b82525050565b600060408201905061070460008301856105f1565b61071160208301846106e0565b9392505050565b6107218161057f565b811461072c57600080fd5b50565b60008151905061073e81610718565b92915050565b60006020828403121561075a57610759610402565b5b60006107688482850161072f565b91505092915050565b600082825260208201905092915050565b7f4f6e6c79206f776e65722063616e2063616c6c20746869732066756e6374696f60008201527f6e2e000000000000000000000000000000000000000000000000000000000000602082015250565b60006107de602283610771565b91506107e982610782565b604082019050919050565b6000602082019050818103600083015261080d816107d1565b9050919050565b600081519050919050565b600082825260208201905092915050565b60005b8381101561084e578082015181840152602081019050610833565b8381111561085d576000848401525b50505050565b6000601f19601f8301169050919050565b600061087f82610814565b610889818561081f565b9350610899818560208601610830565b6108a281610863565b840191505092915050565b6000819050919050565b600061ffff82169050919050565b60006108e06108db6108d6846108ad565b610388565b6108b7565b9050919050565b6108f0816108c5565b82525050565b600060a08201905061090b60008301886105f1565b61091860208301876105f1565b61092560408301866106e0565b81810360608301526109378185610874565b905061094660808301846108e7565b969550505050505056fea2646970667358221220e39509c5711e64dd293132d7b4dc600019202d25b459c6c8ec3d9882b236355e64736f6c634300080a0033",
  "linkReferences": {},
  "deployedLinkReferences": {}
}